:020000040800F2
:10000000F0FF0120E5280508F1BA04084DA0010819
:100010005D2905085D2905085D2905080000000027
:10002000000000000000000000000000F5BA040815
:10003000F9BA040800000000FDBA04083D9C00085D
:100040005D2905085D2905085D2905085D29050864
:100050005D2905085D290508B5B00008BDB0000898
:10006000C5B00008CDB00008D5B0000805AC000848
:1000700019AC00082DAC000841AC000855AC0008D4
:1000800069AC00087DAC00085D290508000000008F
:10009000000000000000000000000000DDB00008CB
:1000A00035C80008CDC7000845C80008BDC700080E
:1000B000F5C7000805C8000815C8000825A90008EC
:1000C000CDB700082DA90008D1B700085D290508A3
:1000D0005D29050815B0040821B0040800000000DF
:1000E000E5B000085D29050861C7040800000000AC
:1000F00000000000000000000000000091AC0008BB
:10010000000000005D29050825C800085D290508D4
:1001100000000000000000000000000000000000DF
:10012000A5AC0008B9AC0008CDAC0008E1AC0008F3
:10013000F5AC000800000000000000000000000016
:1001400000000000000000000000000001BB0408E7
:1001500009AD00081DAD000831AD00082DB0040840
:1001600035A90008D5B70008000000000000000015
:10017000000000000000000000000000000000007F
:10018000000000005D2905080000000000000000DC
:080190005D2905085D29050841
:08019800F01C0500010000004D
:1001A0001D02020006000000483D00200C4A00200D
:1001B0000000000000000000084A002004000800C1
:1001C0008000000074400020184A00200000000059
:1001D00000000000144A0020F701010006000000A2
:1001E000F44000209C4A002000000000E83D060882
:1001F000984A0020FA01010004000000FC400020A1
:10020000A84A0020000000001D6A0408A44A00203B
:10021000021001000C00000018410020B04A00202C
:1002200000000000F03D0608AC4A00200312010067
:100230003D000000E0450020C04A00200000000012
:10024000FC3D0608BC4A0020FD170100AC00000080
:100250004C490020044B002000000000F7F903087F
:10026000004B00201310010004000000F84900209A
:10027000B44B0020000000003C3E0608B04B0020BC
:10028000F8410100060000004C410020BC4B00205A
:1002900000000000403E0608B84B0020F621010097
:1002A0000C00000054450020C84B00200000000056
:1002B000483E0608C44B002006120300120000004E
:1002C00004410020D84B0020000000007570040895
:1002D000D44B0020F5C1010074000000D04800207C
:1002E000F04B00200000000035FF0308EC4B00201D
:1002F0001410010005000000143F0020684C00208D
:1003000000000000B5E50208644C00201840010020
:1003100038000000103D0020744C00200000000058
:1003200041810408704C002002020100030000001B
:10033000CC480020B04C002000000000256B0408D1
:10034000AC4C00201230010010000000F03C0020F6
:10035000B84C002000000000543E0608B44C0020B9
:100360000540010008000000582F0020CC5E00204E
:1003700000000000643E0608C85E00201302010071
:1003800004000000682F0020D85E0020000000005C
:100390006C3E0608D45E0020081203000F00000027
:1003A000102F0020E85E002000000000CD69040846
:1003B000E45E0020FD01010012000000D03E00209C
:1003C000FC5E002000000000458F0008F85E002061
:1003D00006300100260000006C2E0020145F002073
:1003E00000000000456A0408105F00201602150096
:1003F0003F0000002C2E0020405F00200000000085
:10040000E56A04083C5F00200D1001003400000084
:1004100028890020E096002000000000816F01087C
:10042000E09C00200E02010002000000148D00205C
:10043000B49B002000000000703E0608B09B002026
:100440002F20010066000000BC9B00207896002051
:1004500000000000723E0608B89B00201500100046
:1004600070000000D88E002074970020000000006B
:1004700000000000249C00202A000800600000000A
:10048000788E00201497002000000000A5FB0208D1
:10049000289C00202C00040010000000688E002022
:1004A000889900200000000089EC02082C9C0020A4
:1004B00025201E002C0100003C8D00205C980020AF
:1004C0000000000000000000309C00202B00120003
:1004D00024000000AC8C0020B49A00200000000032
:1004E00099EC0208349C0020220201001C0100004B
:1004F0003C8A002098990020000000009D8104089B
:10050000389C0020031101000A000000308A0020FE
:10051000409C00200000000071FC03083C9C00206F
:100520000A9001002400000004890020509C002053
:1005300000000000658A03084C9C0020FE010100B9
:10054000140000001C8A0020789C0020000000009D
:100550009D690408749C0020294014007800000064
:10056000A4890020E49700200000000000000000A3
:100570008C9C00201C1201001000000090890020BB
:10058000949C002000000000256A0408909C002034
:10059000284001001600000078890020A89C002057
:1005A0000000000045A40308A49C00200B300100BB
:1005B0001A0000005C890020C49C0020000000009C
:1005C000D83E0608C09C00200C700400800000008B
:1005D00064880020E89C002000000000DD41020843
:1005E000E49C0020012001000C000000E4880020B1
:1005F0006C9D002000000000F23E0608689D00206F
:100600002700010004000000008900207C9D0020DC
:1006100000000000FE3E0608789D00202320010017
:1006200010000000F0880020849D002000000000E1
:10063000518A0308809D00200EB00400A80300002A
:10064000B8840020989D00200000000081FB020873
:10065000949D0020234201001800000060B5002096
:10066000A0BB002000000000043F06089CBB002047
:100670001F5001002400000018A40020BCBB002073
:10068000000000001C3F0608B8BB002038600100D5
:100690000600000038A20020E4BB0020000000009B
:1006A000403F0608E0BB00201630010008000000B3
:1006B00078B70020F0BB002000000000463F06088D
:1006C000ECBB00201020010003000000A4B50020B6
:1006D000FCBB0020000000004E3F0608F8BB0020D5
:1006E000191001000300000090B5002004BC002098
:1006F00000000000523F060800BC00201A02010062
:100700003C000000F4B100200CBC00200000000000
:100710006178040808BC00202802040004000000DE
:10072000ECA500204CBC002000000000B96A0408C1
:1007300048BC00202702040004000000E8A50020B7
:1007400054BC002000000000B16A040850BC002026
:100750001A0001000E00000024A600205CBC00204E
:1007600000000000563F060858BC0020206201002F
:100770000C00000098A5002070BC002000000000C4
:10078000643F06086CBC00202D020100010000003F
:1007900020BE00202CBE0020000000000000000051
:1007A00028BE0020121201000400000050BD0020ED
:1007B00034BE0020000000009D6A040830BE002006
:1007C000290201004000000010BD00203CBE0020B6
:1007D000000000000000000038BE00200101010000
:1007E00004000000E0BD002080BE002000000000EA
:1007F000000000007CBE0020000101000400000099
:10080000DCBD002088BE002000000000703F06080C
:1008100084BE00200201010003000000D8BD0020BA
:1008200090BE002000000000ED3B02088CBE0020BE
:10083000263001000800000094BD002098BE002072
:1008400000000000B9FB030894BE00202A1201003A
:10085000080000008CBD0020A4BE002000000000A5
:10086000743F0608A0BE0020030001000100000044
:10087000A8CF0020C4D1002000000000000000002C
:10088000C0D100203400010010000000ACCF0020D7
:10089000CCD10020000000001DE60208C8D10020D5
:1008A0003C2001001200000014CF0020E0D1002005
:1008B000000000007C3F0608DCD10020050201009A
:1008C0000400000000C00020F8D10020000000005B
:1008D0008E3F0608F4D100202C2201000800000001
:1008E00018BF002020D2002000000000923F060820
:1008F0001CD20020001201000A000000A4E9002020
:1009000074EE002000000000116A040870EE002060
:100910001B02010010000000C8EF0020CCF60020F0
:1009200000000000C16A0408C8F60020FB010100B5
:1009300001000000F0090120EC0901200000000086
:10094000DD6A0408E8090120FC010100090000003B
:10095000040A0120F809012000000000D56A0408FB
:10096000F409012011020100080000001C0A012006
:10097000140A012000000000A56A0408100A0120E2
:100980001F0206000C000000B8080120280A012000
:10099000000000000D7B0408240A01201002010061
:1009A00001000000CC240120C82401200000000028
:1009B0009A3F0608C424012009020100010000003A
:1009C00089230120D4240120000000009C3F060858
:1009D000D0240120F901010004000000802301203F
:1009E000DC240120000000009E3F0608D8240120DE
:1009F000120100020000004083042057000201029F
:100A000003010000040309041A03000000000000B1
:100A100000000000000000000000000000000000D6
:100A20000000010005000000D800000000000000E8
:100A300005000000060000000200000000000000A9
:100A400068050020DC5E00200200000001000000BC
:100A50005D8C00086405002000000000010000001B
:100A6000010000003D8C0008E001002000000000B3
:100A70000000000000000000000000000000000076
:100A80000000000000000000010000000000000065
:100A90000000000000000000000000000100000055
:100AA0000000000000000000000000000000000046
:100AB0000100000000000000FFFFFFFF0060024097
:100AC0001060024000000000000000000000000074
:100AD000000B00000000000000000000000000000B
:100AE0000060024028600240010000000000000099
:100AF00000000000060C00000000000000000000E4
:100B0000000000000060024040600240020000005F
:100B10000000000000000000100D000000000000B8
:100B20000000000000000000006002405860024029
:100B3000030000000000000000000000160E00008E
:100B40000000000000000000000000000060024003
:100B5000706002400400000000000000000000007F
:100B6000200F000000000000000000000000000056
:100B700000600240886002400500000000000000A4
:100B8000000000002610000000000000000000002F
:100B90000000000000600240A0600240060000006B
:100BA0000000000000000000301100000000000004
:100BB000000000000000000000600240B860024039
:100BC000070000000000000000000000362F0000B9
:100BD000000000000000000000000000006402406F
:100BE000106402400000000000000000000000004F
:100BF00000380000000000000000000000000000BD
:100C0000006402402864024001000000000000006F
:100C10000000000006390000000000000000000095
:100C20000000000000640240406402400200000036
:100C30000000000000000000103A0000000000006A
:100C40000000000000000000006402405864024000
:100C5000030000000000000000000000163B000040
:100C600000000000000000000000000000640240DE
:100C7000706402400400000000000000000000005A
:100C8000203C000000000000000000000000000008
:100C9000006402408864024005000000000000007B
:100CA00000000000264400000000000000000000DA
:100CB0000000000000640240A06402400600000042
:100CC00000000000000000003045000000000000AF
:100CD000000000000000000000640240B864024010
:100CE0000700000000000000000000003646000081
:100CF000000000000000000000000000998D0008C6
:100D0000B98D0008D18D0008D58D0008E597000841
:100D1000D98D0008DD8D0008105E0508DD980408F7
:100D2000256D0408BD9904080000000000000000C3
:100D300091960408299704080000000000000000B4
:100D400000000000656D0408E1860008ED860008DB
:100D50007993000851930008F986000895930008DC
:100D6000B193000801000000030000000000000033
:100D7000050000001F0000001C0000001F00000014
:100D80001E0000001F0000001E0000001F000000E9
:100D90001F0000001E0000001F0000001E000000D9
:100DA0001F0000000068214C0101FF00745D050870
:100DB000A85D0508DC5D0508FFFFFFFF06000000D9
:100DC00005000000C700000006000000050000004C
:100DD000A16D0408A56D0408A96D0408B56D04088B
:100DE000B96D0408AD6D0408B16D0408FFFF000083
:100DF000FFFFFFFF01000000FFFFFFFF90CF05088E
:100E000000000802050303000000000098CF050859
:100E1000010008020504030000000000A0CF05083F
:100E2000000008020503030000000000A8CF050829
:100E3000010008020504030000000000180A06086B
:100E40000200FE010110030000000000ECBE0508D6
:100E5000030014020003000000000000B0CF0508EA
:100E600004001F020200060000000000B8CF0508C1
:100E700005001F0202010600000000000001010140
:100E800000000000020101007D00000030D00508D4
:100E9000D802060800000000C9DB0108A086010096
:100EA0000400000030D005087003060800000000B0
:100EB000716B0108E803000004000000F8BB05089E
:100EC0000000000000000000714202087D000000E8
:100ED000FF000000A8BF050800000000000000009F
:100EE000B16002087D000000FF00000054100608F9
:100EF0000000000000000000C52B03087D0000007A
:100F0000FF000000A8D3050800000000000000005A
:100F100011700108E80300000300000098C10508F3
:100F20000000000000000000CD170308102700009B
:100F300003000000ACCF0508000000001DEE020811
:100F40006DB401085F7600000500000088D5050833
:100F50000000000000000000B96F01081027000029
:100F600002000000780306080000000000000000F6
:100F7000456B0108E8030000050000008403060833
:100F80000000000000000000B13F0208204E0000F9
:100F900003000000940306080000000000000000A9
:100FA00031590208204E000003000000A403060887
:100FB000000000000000000041A80108400D0300EF
:100FC000030000000CD10508000000000000000034
:100FD000B1B201081027000002000000B4030608A7
:100FE000000000000000000025AC0108A86100001E
:100FF0000200000050C005080000000000000000D2
:1010000081740108A861000002000000ECBD050821
:101010000000000000000000196D0108102700000A
:101020000200000090D5050800000000000000004C
:101030000D770108A00F00000200000014D1050880
:10104000000000002BFA0308E93E04088545010072
:1010500002000000ACBD0508000000000000000018
:101060004D1104081027000002000000E4020608E9
:10107000000000000000000029B2030850C3000077
:1010800002000000BC030608000000000000000091
:10109000CD210408400D030001000000C403060830
:1010A00000000000000000005526040850C30000A6
:1010B00003000000D003060800000000000000004C
:1010C0003D56020840420F0001000000DC03060804
:1010D0000000000000000000F989010850C3000072
:1010E00001000000E8030608000000000000000006
:1010F000453004081027000002000000A98C0408F5
:10110000956C0408C18B040800000000016D040800
:1011100031980408918E0408DD8E04080000000058
:1011200000000000F56C0408716D0408956D04085A
:1011300081BA040865BA04089DBA0408B9BA04085B
:10114000D5BA0408E58B0408196C0408BD890408A5
:1011500000000000656C0408F18C0408958D0408FB
:10116000E18D04080000000000000000896C040804
:10117000A8610000F9B101080000000000000000B3
:10118000000000000000803F0000000000000000A0
:10119000000000000000803F000000000000000090
:1011A000000000000000803F000000000000000080
:1011B00000000000FFFFFFFFFFFFFFFF4D8B010856
:1011C0000000000000000000000000005D93010826
:1011D000000000000000000000000000010100000D
:1011E000FFFFFF7F00000080000000000CD2002005
:1011F0000800000000000000FCD1002008000000F2
:101200007EFF7EFFE2FFE2FF0000803FFFFFFFFF67
:10121000CCD2002020D30020D8E30020E6E3002039
:1012200001F11F3FD6010000FF1FFF1F0000FA431E
:101230000000FA4300000000000000000000000071
:1012400000007A440000803F0000803F0000000062
:10125000000000000000000000000000000000008E
:10126000000000000000000000000000000000007E
:10127000000000000000000000000000000000006E
:10128000000000000000000000000000000000005E
:10129000000000000000000000000000000000004E
:1012A000000000000000000000000000000000003E
:1012B0000000000000000000000000000000803F6F
:1012C000000000000000000000000000000000001E
:1012D000000000000000000000000000000000000E
:1012E00000000000040000000000803F000000003B
:1012F00000000000000000000000803F00FF000030
:101300000000000000000000A5920308000000009B
:1013100000000000C098050801FF0000DDC00308C0
:101320000000000000000000C4AF0508000000003D
:101330000000000000000000889D0508000000007B
:101340000000000000000000409E050800000000B2
:101350000000000000000000EC9D050801000000F6
:10136000FA00000001000000010000000000000081
:101370000000000039BB03086AE900204DF10308B2
:101380000000000000000000EC9C0508497A0408F9
:101390000000000000000000609C050859EC0308F4
:1013A0000000000000000000189C05082D202D2DD5
:1013B000202D2D2D2D202D2D2D00000000000000B2
:1013C000000000000000000000000001010000001B
:1013D0003AE5002088136F17010000003CE500206B
:1013E00088136F17000000003EE5002088136F1778
:1013F0000100000040E5002088136F170000000086
:1014000055920308000000000000000080990508C4
:10141000A2E9002001000000D499050843E500205E
:1014200001000000E0990508E8E500200200000046
:10143000E89905087D920308000000000000000004
:10144000F499050800000000000000000000000002
:10145000489A05080000000000000000000000009D
:10146000B89A050838E5002002000000009B050836
:10147000A4ED0020E0150C1700000000C0120000D1
:101480008AEE0020000000000000000088EE00202E
:10149000000000000000000086EE002000000000B8
:1014A0000000000084EE00200000000000000000AA
:1014B00082EE0020000000000000000080EE00200E
:1014C0000000000000000000240C002000000000CC
:1014D0000000000042E5002003000000F09A05082B
:1014E0000000000000000000000000000C9B050848
:1014F0008EEE0020E0150C170000000090EE00209A
:1015000002000000009B05082D202D2D202D2D2DE3
:101510002D202D2D2D2D00000000000000000000CA
:1015200000000000000000000000000000000000BB
:1015300000000000449B050892EE00209CFF2C0157
:10154000000000007EED0020E0150C1700000000F8
:10155000E1EC002002000000009B05082D202D2D4D
:10156000202D2D2D2D202D2D2D2D000000000000D3
:10157000000000000000000000000000000000006B
:1015800000000000000000007C9B0508DCE4002057
:1015900000C80100DBE4002000500100DAE4002074
:1015A000005A0100D8E4002002000000F86A050893
:1015B0002C0D0608340D0608EAE700200100C409D6
:1015C00000000000E8E700200100C409000000005E
:1015D000E6E700200100C40900000000E4E7002065
:1015E0000100C40900000000E0E700200100C40978
:1015F00000000000E2E700200100C4090000000034
:10160000DEE700200100C40900000000DCE7002044
:101610000100C409000000001DE5002000C8010011
:101620001CE5002000C801001AE500200000FFFFB3
:101630000A00000018E500200100C80001000000B9
:1016400016E50020320030753200000014E500205D
:10165000E2FF14000500000012E500207EFF1400E8
:101660000500000010E5002005002C010500000029
:101670000EE50020055A050023E5002000FF0100CB
:1016800021E5002002000000580D00201FE5002089
:1016900004000000889E050822E5002000FF0100EC
:1016A00020E5002002000000580D00201EE500206B
:1016B00004000000889E0508F8E50020FF7F010077
:1016C000F4E5002000000000FFFFFFFF0100000024
:1016D000F0E5002000000000FFFFFFFF0100000018
:1016E000ECE5002000000000FFFFFFFF010000000C
:1016F000A2E40020EE02CA0801000000A1E40020DC
:1017000000C8010064000000A0E4002001C801003E
:10171000640000009FE40020010000009C9E05087A
:1017200036E500200000803E0500000034E5002082
:1017300080C1803E0500000032E500200083007D6E
:101740000500000030E5002080C1803E050000005B
:101750002EE5002000FF01002CE500206400F401CC
:10176000010000002AE500206400F40101000000EF
:1017700028E500206400F4010100000026E50020B7
:1017800004000000F46E050825E5002002000000BA
:10179000E86E0508000000000000000000000000E6
:1017A000A49E0508000000000000000000000000EA
:1017B000DC9E05089EE4002061000000546C0508D2
:1017C0009CE4002003000000149F05089DE4002015
:1017D00004000000086F050809E500200300000070
:1017E000249F050808E5002003000000249F050849
:1017F000FCE40020000A0100FAE400200000E803F5
:1018000001000000F8E400200000E80301000000EF
:10181000F6E40020000A0100F4E400200000E803E0
:1018200001000000F2E400200000E80301000000D5
:10183000EAE40020C800E80301000000F0E4002012
:101840001400FA0001000000EEE400200100E803AB
:1018500001000000ECE4002000070100E8E40020A3
:101860000000F40101000000E6E400200000F401A3
:1018700001000000E4E400200000F4010100000089
:10188000E2E400200000F40101000000E0E4002098
:101890000000E80301000000DEE400200000E8038F
:1018A00001000000C5E4002019640100C4E4002028
:1018B00002000000AC6B0508D6E4002000640100C3
:1018C000B9E4002000640100B8E4002000640100D5
:1018D000C0E40020006401000A000000BFE4002012
:1018E000006401000A000000BEE400200064010062
:1018F0000A000000C3E4002000FF01000A0000000D
:10190000C2E4002000FF01000A000000C1E4002042
:1019100000FF01000A000000BDE4002001FF0100FB
:101920000A000000BCE4002001FF01000A000000E2
:10193000BBE4002001FF01000A00000006E50020D2
:101940000000F4010100000004E500200000E803AD
:101950000100000002E500200000E8030100000093
:1019600000E500200000E80301000000FEE4002084
:101970000000E8030100000069E900200096010072
:1019800066E90020E803D0070A00000064E90020AF
:101990000064010062E90020E803D0070A000000AB
:1019A00060E90020006401000A0000005FE90020F7
:1019B0000096010056E9002000C8010055E900200A
:1019C0000064010054E900200064010053E9002094
:1019D0000064010052E900200064010051E9002088
:1019E000FF08010050E9002001640100058D030893
:1019F000498D030800000000349F050859E90020C4
:101A00000132010058E9002001000000806B050848
:101A100057E9002004000000886B05084FE900200A
:101A2000009601004EE90020006401004DE900200D
:101A300000FA0100640000004CE900200AFA0100ED
:101A40004BE900200AC801004AE9002000640100B7
:101A500049E900200064010048E900200A5A010019
:101A600047E9002000C8010046E9002000C8010045
:101A70005CE90020003201005EE900200014010052
:101A80005DE90020005F01005BE900200400000028
:101A9000A86A05085AE90020006401000A00000055
:101AA000B3E400200AC805000A000000B2E40020E8
:101AB000010000006C6F0508B5E400200AC80500AD
:101AC0000A000000B4E40020010000006C6F05086B
:101AD000AAE4002000C805000A000000B1E40020CC
:101AE00000C805000A000000ABE4002000C80500A3
:101AF0000A000000ACE4002000C805000A00000055
:101B0000AFE4002000C805000A000000B0E4002097
:101B100000C805000A000000AEE4002000C805006F
:101B20000A000000ADE4002000C805000A00000023
:101B3000A9E4002002000000746A050844E90020BE
:101B40000000D007010000003FE9002000C80100AC
:101B50003EE9002000C801003DE9002000C8010066
:101B600042E900200000D007010000003CE900200D
:101B700000C801003BE9002000C801003AE900204C
:101B800000C8010040E900200000D007010000006B
:101B900039E9002000C8010038E9002000C8010030
:101BA00037E9002000C80100F8170608000000000F
:101BB000000054EE0020041806080708000000008A
:101BC000481300200C180608070800000000401306
:101BD0000020141806080708000000003813002031
:101BE0001C1806080808000000002C130020241808
:101BF0000608070800000000241300202C1806081F
:101C00000708000000001C1300203418060807080D
:101C100000000000141300203C180608080800000B
:101C200000000813002044180608071000000000F8
:101C3000001300204C180608071000000000F812DE
:101C4000002054180608071000000000F0120020C1
:101C50005C180608081000000000E4120020540B75
:101C60000608010000000000000000000000000065
:101C7000100000000000000000000000498F030871
:101C8000598F03082DA80308A49F05080DE500201F
:101C9000006401000CE50020005A01000BE5002063
:101CA00000C8010000000000000000009DBA030809
:101CB00040A0050874E8002003000000646A0508DD
:101CC000DD8F0308319003080000000094A0050890
:101CD00085900308C5900308000000003CA105089A
:101CE000EDA20308F9C1030800000000BCA105082B
:101CF00024E50020010301005993030881930308A0
:101D000000000000E8A40508A58B0308CD8B03089C
:101D10000000000068A505082591030885910308C7
:101D200000000000CCA5050895BC0308678B0308DC
:101D30000000000084A60508358F0308000000009D
:101D4000000000002CA70508F58D0308618E03082C
:101D50000000000090A705088D8D0308C18D0308C1
:101D60000000000048A8050869F80308D58C03089E
:101D700000000000C8A8050835E9002003000000A5
:101D800044EE0020C58E0308018F03080000000008
:101D9000B8A90508ADF80308B1BF030800000000AA
:101DA00028AA05084D8C030899BE0308000000000E
:101DB00020AC05080DF8030859BE03080000000018
:101DC0005013002036E900200300000000EE002040
:101DD000758F0308A98F0308000000002CAD0508CB
:101DE000F5B10308000000000000000090AD0508F8
:101DF0000D91030815C20308000000002CAE050871
:101E00000000000000000000000000009CAE05087B
:101E100083F7030825BE0308000000000CAF050887
:101E200001AA5507010000AA5505010000000000A5
:101E3000FCFFFFFF0101FD08A0F6002000000000EC
:101E400098F600200000000001AA550902000000D9
:101E5000AA5503009F00000001000000AA550B01D5
:101E60000000AA550501000014010000FF00000059
:101E700009024300020100C032090400000102020D
:101E800001000524001001052401000104240202C0
:101E90000524060001070582030800FF090401006C
:101EA000020A000000070501024000000705810248
:101EB0004000000009026400030100C03209040070
:101EC0000001030000000921110100012236000772
:101ED00005830309000A080B01020202010009043C
:101EE0000100010202010005240010010524010087
:101EF00002042402020524060102070582030800E9
:101F0000FF09040200020A00000007050102400068
:101F1000000705810240000009022000010104C001
:101F2000320904000002080650050705810240003E
:101F3000000705010240000012010002EF0201400B
:101F40008304563200020102030100001201000264
:101F50000202004083044057000201020301000016
:101F60000403090401010101010000000501090544
:101F7000A101A100050109300931093209330935F0
:101F80000934093609371581257F750895088102BE
:101F90000509190129081500250195087501810217
:101FA000C0C0000009022200010100E03209040063
:101FB000000103010200092111010001223600077E
:101FC00005830309000AFFFF8D8704082D88040894
:101FD00021820408E96B04082D6B0408CD6B04080A
:101FE000B56B0408F96B0408096C040800000000D4
:101FF00000000000A017002000000000000000000A
:1020000068000000D0000000000000000000000098
:1020100000000000000000000000000000000000C0
:1020200000000000000000000000000000000000B0
:1020300000000000000000000000000000000000A0
:04204000000000009C
:10800000B04B00EB80022DE9F04103EBC20553F8C1
:1080100032205268918ACC074FEA800C76D4CCB2D9
:10802000A70744D5BFF35F8F297F0129CCB200F0A9
:10803000E6804100148BBFF35F8F0CEB000403EB71
:10804000C404257F022D00F006810CEB000403EB35
:10805000C404257F032D08D1A47F34B10C181C441F
:1080600094F87850002D40F05B819488A4B244F4D9
:10807000806494800C181C4494F97AE00CEB0004A2
:1080800003EBC404247F013474450ED10144194428
:10809000002481F8784091F87910002940F0D480CC
:1080A000604403EBC00000234376BDE8F08166071F
:1080B00065D400EB40071F4414F040048EB297F9DA
:1080C0007AE04FEA400100F0DA80168A6C6AF6B274
:1080D00004F80E605FFA8EF6741C64B295F81C808A
:1080E00087F87A40E51CA845A64600F045810CEBD0
:1080F000000503EBC5052D7FAC42BFD10C1802363D
:108100001C4476B284F87A60B646B7E7118821F449
:1081100000610904090C1180118889B241F4806161
:10812000118000EB40041C44AE7F002184F87A10DB
:108130004100002E52D094F87840002C4BD00CEB2C
:10814000000403EBC4040144247F19440125022CDC
:1081500081F8785004D1118889B241F4006111800E
:108160000CEB000103EBC101897E41F0010111829A
:108170000CEB000203EBC2031B7FBDE8F08100EBB8
:1081800040061E44AC7F012186F8791000FA01F107
:10819000002C00F0908096F87840002C40F09480FD
:1081A0000CEB000403EBC404647F002C00F0BB80E4
:1081B0000D181D44148895F87AE0A4B20EF1010E52
:1081C00044F400744FFA8EFE148085F87AE0148827
:1081D000E705FCD452E7EC7EFF2CB0D00CEB00049A
:1081E00003EBC404A57E05F0FE051582E27EFF2A9E
:1081F000BED001441944FF2281F87A20B8E7A97F54
:1082000000293FF416AF00EB40051D44410095F8EE
:108210007860002E3FF40EAF168826F48066360490
:10822000360C1680BFF35F8F85F87940148B148865
:1082300095F97AE0A4B244F4007414809488A4B24E
:1082400044F48064948019E7918821F44071090412
:10825000090C918024E7A47F002C3FF4F6AE0C18A3
:108260001C4494F87850002D3FF4EFAE94F97AE076
:10827000148824F480642404240C148014E036064A
:108280007FF5FCAEBEF1FF3F7DD02C6A14F80E40A6
:10829000E4B214822C7F0EF1010E4FFA8EFE74456B
:1082A00087F87AE07FF4EAAE948824F480642404AA
:1082B000240C9480E2E696F87840002C3FF470AFEE
:1082C00076E700BFF01700202C7F6F6A022C14881D
:1082D00036D924F480642404240C1480B2F810E00D
:1082E00096F97A405FFA8EFE07F804E0D5F824E0AC
:1082F0001588ADB245F400751580E4B2178A651C87
:108300006DB2FFB20EF8057004F1020E9488A4B2AB
:108310004FFA8EFE44F4806486F87AE0948056E743
:1083200094F97AE0C0E71488A4B244F4807414800D
:108330000C181C44012594F97AE084F8785046E73B
:10834000A4B244F400741480B2F810E096F97A40B4
:108350005FFA8EFE07F804E0E4B2D5F824E0178A4D
:10836000651C6DB2FFB20EF8057004F1030E4FFAF2
:108370008EFE86F87AE02AE7958825F480652D043C
:108380002D0C9580B3E6E97E87F87A40C9B2118258
:10839000A97F19B9297F00297FF4EAAE918821F4D9
:1083A00080610904090C9180E2E600BF10B4046901
:1083B0008269E4684168146000234024C2E9023401
:1083C000446993630C31C2E90433C2E90633C2E95C
:1083D0000833C2E90A33C2E90C33516084B1C2697F
:1083E000C2E90233C2E90433C2E90633C2E9083301
:1083F000C2E90A33C2E90C33E0689363C2E90001C1
:108400005DF8044B704700BFD0E9001300221A60EA
:10841000037D1F2B07D9203B202202FA03F343F0F0
:108420001803CB607047202202FA03F343F01803CD
:108430008B6070471B4B016803F57D7C02E02C3399
:1084400063452CD01A688A42F9D170B593F804E0DC
:10845000427996450BD02C33634505D01A688A4281
:10846000F4D02C336345F9D14FF0FF3070BD9E46F8
:108470008468DEF80C50A5424FF0000208D00132AB
:10848000032A0EF10C0EE6D0DEF80C50A542F6D110
:10849000DEF81050C668B542F1D150B270BD4FF051
:1084A000FF307047C8460508002A4FEA014C30B536
:1084B00003460ABFE6468E468C4600F1C0050024FE
:1084C00019689A6841EA0C0142EA0E029A60C3E90F
:1084D00000140C33AB42F3D1D0F8C030C0F8C44024
:1084E00043EA0E03C0F8C030C0F8C84030BD00BF3A
:1084F00083691969B3F80CC00A6830B49C6822F02B
:10850000010224680A60A28992B222EA0C02A281C6
:10851000027D00681F2A06D94568203A0824944045
:108520002C4246D0FEE70568082494402C42F9D13D
:10853000202404FA02F28260274A92F88120002A5D
:1085400035D01A7E012A39D0D3F8F4200132C3F88D
:10855000F420EFF31181502282F3128858685C6C8A
:10856000026822EA04029C6C2243C9B2026081F3D1
:108570001188D3E90C401A6999681D6C0968146068
:108580005061D3E90E40546090600024B3F8A80015
:10859000D5604C62C86210680124204310601C76CC
:1085A00083F8F1408A899B8913439BB28B8130BC4D
:1085B0007047202404FA02F2C260BDE7002283F86B
:1085C000F120D3F8F8000A68013022F00102C3F864
:1085D000F8000A60EBE700BFF017002010B40D4C64
:1085E000D4F88430002B12DD002004F1880C014601
:1085F000DCF8A03003F1C00259600C339342FBD188
:10860000D4F88430013083420CF5807CF0DC5DF8D6
:10861000044B7047F0170020704700BF024B03EB7C
:10862000401393F8A5047047F01700204368B0F892
:10863000502010B41A83EFF31182502383F3128871
:108640004168446C0B6823EA0403C46C2343D2B230
:108650000B6082F31188D0E90741826803691268D0
:108660001C605961D0E909415C60C46A9960B0F846
:108670006010DC600023D1625DF8044B0376704724
:108680000C2911D8DFE801F0231010101910101078
:10869000111010100700838B23F400631B041B0CC4
:1086A00043EA02239BB283837047838B23F0080342
:1086B0001B041B0C1A4382837047038B23F4006353
:1086C0001B041B0C43EA02239BB203837047038BFA
:1086D00023F008031B041B0C1A430283704700BFDE
:1086E000122301480B8070479801002004230148A1
:1086F0000B807047AC0100201C48D0F8103AD0F82D
:10870000182A10B59B184FF01A040C8001D1184894
:1087100010BD174AD0F8140A02F1100411464FF0A8
:10872000000E4FEA137CB3F1204F34BF0CF1300C34
:108730000CF1370C81F802C081F803E002318C4261
:108740004FEA0313EDD102F108040021030FB0F149
:10875000204F34BF303337339374D1740232944294
:108760004FEA0010F2D1024810BD00BF0070FF1F99
:10877000B0010020D0E90920131A5842584170472F
:1087800090F84F3830B53BB990F84D1890F84E3806
:108790000124DAB2914200D830BDB0F8565804FA3C
:1087A00003F22A43A0F856280133F2E70379024680
:1087B00013F0010006D0D2E90731D2685B1A013A02
:1087C00003EA0200704710B5037913F00103044671
:1087D0000ED0FFF7EBFF034650B1226A6369E168F0
:1087E0009B5C0132B2FBF1F001FB1022DBB2226292
:1087F000184610BD03799B070AD5436A8269D15494
:10880000436A02690133B3FBF2F102FB11334362A5
:1088100070477047017170470379014613F00200F9
:1088200007D00B69D1E90921013B521A1A40D2B293
:10883000981A704782B01D4B1D4900220192019386
:10884000019B04330193019B1A688B6803F00C03AE
:10885000042B02D0082B05D0164A174BC3F88825E5
:1088600002B0704748684B68400203F03F0314D4DD
:108870004A681049B1FBF3F3C2F3881203FB02F21A
:108880000B4B5B68C3F3014301335B00B2FBF3F2B4
:10889000094BC3F8882502B070474968B2FBF3F270
:1088A000C1F3881303FB02F2EAE700BF502800403F
:1088B000003802400024F400F01700202DE9F04FAA
:1088C0004A484B494B4B4C4C4FF0010A4FF00209C0
:1088D0004FF004080827102620254FF0400E4FF0D7
:1088E000800C30F8022B12F0010F03D01960A3F8AE
:1088F00004A0083312F0020F03D01960A3F804900B
:10890000083312F0040F03D01960A3F80480083371
:1089100012F0080F02D019609F80083312F0100F78
:1089200002D019609E80083312F0200F02D0196027
:108930009D80083312F0400F03D01960A3F804E0C3
:10894000083312F0800F03D01960A3F804C0083375
:1089500012F4807F05D04FF4807B1960A3F804B037
:10896000083312F4007F05D04FF4007B1960A3F8A0
:1089700004B0083312F4806F05D04FF4806B196097
:10898000A3F804B0083312F4006F05D04FF4006B65
:108990001960A3F804B0083312F4805F05D04FF4D7
:1089A000805B1960A3F804B0083312F4005F05D0AF
:1089B0004FF4005B1960A3F804B0083312F4804F41
:1089C00005D04FF4804B1960A3F804B00833D20BE4
:1089D00004D04FF4004219609A80083301F5806199
:1089E000A1427FF47EAFBDE8F08F00BFBC4A05080E
:1089F000000002407C1D00200014024010B5844697
:108A00004FEA810E102312F4004F14BF0E240724E6
:108A10005200013BCCF8004092B2F444F3D100EB99
:108A200081128C01035142F82130122010BD00BF89
:108A300010B584464FEA810E0424130B03EB430365
:108A400018331201013CCCF8003092B2F444F4D156
:108A500000EB01130A01845043F82140062010BDA9
:108A6000704700BF704700BF034B00EB400003EBB3
:108A7000C00393F81D087047F0170020064B93F8C9
:108A8000CC28824283BF00EB400003EBC003D3F845
:108A900020080020704700BFF01700201D4B93F8FE
:108AA000CD28AAB3D3F80C1809B100200860012A18
:108AB0002ED0D3F8241809B100200860022A27D04C
:108AC000D3F83C1809B100200860032A20D0D3F85D
:108AD000541809B100200860042A19D0D3F86C1882
:108AE00009B100200860052A12D0D3F8841809B112
:108AF00000200860062A0BD0D3F89C1809B100208A
:108B00000860072A04D0D3F8B4380BB100221A60E9
:108B1000704700BFF01700201D4B93F8CD28AAB373
:108B2000D3F80C1809B100200860012A2ED0D3F820
:108B3000241809B100200860022A27D0D3F83C1875
:108B400009B100200860032A20D0D3F8541809B1D5
:108B500000200860042A19D0D3F86C1809B100204D
:108B60000860052A12D0D3F8841809B100200860E3
:108B7000062A0BD0D3F89C1809B100200860072AF8
:108B800004D0D3F8B4380BB100221A60704700BF8C
:108B9000F017002000EE100AB8EE400A704700BF40
:108BA000BCEEC00A10EE103A98B27047072809D8F8
:108BB000054B8C2202FB0033B3F8D008B0FA80F0EA
:108BC0004009704700207047F0170020072806D89A
:108BD000034B8C2202FB0033012283F8D22870471A
:108BE000F0170020072808D8044B03EB401393F834
:108BF000A42412B1012283F88A247047F0170020C0
:108C0000072808D8054B03EB4013B3F88804B0FAE3
:108C100080F0400970470020704700BFF017002027
:108C2000054B93F8CC28824286BF03EB4013D3F860
:108C300094040020704700BFF01700200123437701
:108C40000020704708B503468269006BD96A024468
:108C50009A6101B18847002008BD00BF436A1B68C4
:108C60001B6A5B685B78024613F0010008BF50770F
:108C7000704700BFC2628161704700BF704700BF8C
:108C8000043070470D4B93F8342DD3F8301D024457
:108C9000D2B283F8342D93F8342D01441206C3F870
:108CA000301D05D593F8342D82F0800283F8342DE1
:108CB000034B012283F83220704700BFF0170020D9
:108CC000980100202DE9F047154FD7F8385DED0ADF
:108CD00020D00026B14607F557687419D7F83C3DF7
:108CE0001048D3F828A0C7F8689D04EBD47464102A
:108CF00010234246E102D0470F280BDD0A4B03F157
:108D0000100153F8042B013207D18B42F9D12546CB
:108D1000B542E2DCE802BDE8F087661CF8E700BF78
:108D2000F01700202C25002060250020194BD3F8D7
:108D3000801DD3F8842D8A1A322A04D8D3F8982DAE
:108D40008A420FD3704793F8882DD3F88C1D02F018
:108D5000010219B108688988B2B901830022C3F8F9
:108D6000982D7047D3F88C2D82B11068928810B47A
:108D700044693231224218BF42835DF8044B08BF78
:108D80000283C3F8981D70474183E7E73231C3F887
:108D9000981D7047F0170020064AD2F88C3D3BB171
:108DA00092F8881D9A881B68C90754BF1A835A8392
:108DB00000207047F01700204FF40070034B106044
:108DC000D3F8A83D0B600020704700BFF0170020CB
:108DD0000020704701207047012070470020704735
:108DE000704700BFD0ED007AD0ED016A30EE677AAF
:108DF000E6EE877AB0EE670AC0ED007A704700BFF2
:108E0000D0ED017AD0ED026A30EE677A90ED000A7B
:108E1000E6EE877A37EEC07AC0ED017AA6EE870AD1
:108E200080ED000A704700BF90ED017AD0ED036A33
:108E3000D0ED027A30EE470AA6EE807A90ED000A75
:108E400080ED017A37EE676AE6EE867A37EEC07A11
:108E5000C0ED027AA6EE870A80ED000A704700BFD7
:108E600030B585B0684642F055F91048104AD0F840
:108E7000FC10009B0F4D41F08071C0F8FC100024E5
:108E800000F1C840C2F8B05FA0F5650054601168F9
:108E9000094CA0F67D60A0FB030341F001019B0C8F
:108EA000C4F8D83D116005B030BD00BF00ED00E052
:108EB000001000E055CEACC5F01700202DE9F041C0
:108EC0001D4CDFF87C801D4F82B004F52075012613
:108ED00002E00834A54223D0A379002BF9D1206801
:108EE00000F13F4303F57E0308EB932393F800342E
:108EF0005A09032A03F01F0306FA03F317D0042AC2
:108F000011D0022A02D17A6C13437B640023A1881A
:108F10001A46CDE90036083447F020F9A542DBD1E6
:108F200002B0BDE8F0813A6B13433B63EEE73A6C65
:108F300013433B64EAE700BF7C1D00200038024079
:108F4000C846050870B50B4C05460426013E00D105
:108F500070BD94F9000011F0B1FB031E08DBEA18A4
:108F600061789171A178E954052BDCBFE378137324
:108F70000434EBE7CE4A050838B5264D95F89C2E0B
:108F800095F89D3E9A4240D195F89E0EF0B1224B45
:108F900095F89F4ED5F8DC2D00EB400003EBC000A8
:108FA000B4B140F20D3500E01A6899689C894C60B4
:108FB0000C6844F001040C60A2F848509189183301
:108FC00089B241F4807183429181EDD138BD1A6834
:108FD000118821F0800109041833090C118033F83D
:108FE000141CD162118889B241F080011180546251
:108FF000B2F80CC033F8041C41EA0C0189B2834278
:10900000918123F8044CE2D138BD48F0F3F80028F0
:10901000BAD138BDF0170020CC2500202DE9F04151
:109020001348144D4FF4DC7200214BF059F94FF006
:109030000008A5F2144705F2746440F29D1655F835
:109040002810002354F8332091420BD001330A2B0F
:10905000F8D1002008F1070845F0FCFCB045EED13E
:10906000BDE8F08107EBC30393F88C0AF2E700BF79
:1090700090260020DC4A05082DE9F041DFF8B08099
:1090800008EB401797F8A4340BB9BDE8F08104460B
:109090000D4646010FF04CFEB0BB2348464400EBA2
:1090A0004410A6F888540FF08DFD98F88130D6F85A
:1090B000A024D6F88C1493B1D2F8A03001248C40AF
:1090C00003F1C001420010F4004F90B202D15A687F
:1090D00022435A600C339942F4D1BDE8F081D2F8B2
:1090E000A030012401F11002944003F1C0014200BC
:1090F00010F4004F90B202D15A6822435A600C33E8
:109100008B42F4D1BDE8F08198F89D2E074B02EB1D
:10911000420203EBC203234413F8935C002DBCD03E
:10912000012387F88A34B8E7781C0020E82800205B
:10913000F01700202DE9F0412C4F8C2505FB007520
:1091400095F8DF380BB9BDE8F08104460E460FF004
:10915000EFFD48BBDFF89C8025488C2505FB047596
:1091600004EB8404C4EBC40400EB8400A5F8D068CD
:109170000FF028FD97F89F1E58F8403C024621BB8F
:109180000121D5F858099847D5F85419B5F8DC48A5
:109190008A8AD5F8503922438A8258601A6842F088
:1091A00001021A60BDE8F08197F89D3EDFF8448027
:1091B00003EB430308EBC303234413F8936C002E23
:1091C000CAD0012385F8D238C6E7D5F8D818D5F823
:1091D00054094979006901F0FC01084404219847C9
:1091E000D5F8543980009881BDE8F081F01700204F
:1091F000C0200020E82800209CE700BF10B50446EE
:109200004AF0F8F981B22046BDE8104034E700BFCB
:1092100010B504464AF0EEF981B22046BDE8104090
:1092200088E700BF38B50B4D00EB400005F60C0396
:1092300003EBC00393ED027AD3ED037AE7EE007AF5
:10924000C4002544B0EE670A4AF0D4F9D5F80C38CA
:10925000186038BDF0170020F8B50C4B1D685A692E
:10926000154005405D617DB1094F0126B5FA85F4D1
:10927000C4F11F0407EB840306FA04F453F83C0C12
:1092800003689847A543F1D1F8BD00BF003C0140F9
:10929000E82800202DE9F843038AB0F80C801FFA73
:1092A00088F818EA030829D005460E464FF0004713
:1092B000B8FA88F327FA03F2D24391B21B3B298212
:1092C00008EA0208042B16D8DFE803F0352C231A2D
:1092D0000300B36A002B37D003F1FF3900231FFAD4
:1092E00089F9B362746A34B12368204649469847C5
:1092F0006468002CF8D1B8F1000FD9D1BDE8F8832B
:109300007068696B036889B29847B8F1000FCFD1D4
:10931000F4E7B068A96B036889B29847B8F1000F09
:10932000C6D1EBE7F068E96B036889B29847B8F1FA
:10933000000FBDD1E2E73069296C036889B2984714
:10934000B8F1000FB4D1D9E7EB6A1FFA83F9C9E786
:109350000A4608B5054920B9054842F05DFB0348B7
:1093600008BD044842F058FB004808BDEC28002026
:10937000E0B7050808B8050810B5044C04480A46CB
:10938000214642F049FB204610BD00BFEC280020DA
:1093900030B8050810B5044C04480A46214642F08E
:1093A0003BFB204610BD00BFEC28002044B8050858
:1093B00010B5044C04480A46214642F02DFB2046D5
:1093C00010BD00BFEC28002050B80508F8B5A0F685
:1093D00068042379DB0725D5657994F84C3805F0C6
:1093E00001073D46FBB1D4F848341A68D36A5B08DC
:1093F000536294F8503823B1B4F85A380133A4F8C2
:109400005A38606C85F0010144F0D2FF012384F8E2
:109410004F38002384F84D3884F84E38A4F8563875
:1094200084F84C38F8BD94F84F68012E04BF94F8C6
:109430004D3884F84E382046FFF7A2F94EB9012383
:1094400084F84F3887EA0301606CBDE8F84044F0C7
:10945000AFBF002384F84F383946F5E710B584696B
:10946000BCB12068036A1B7B33B948F085F92046FC
:10947000BDE8104041F07CBAA368002BF5D01A6813
:109480009B88138348F078F92046BDE8104041F0EE
:109490006FBA10BD38B5846904B938BD256828464F
:1094A00048F06AF92B6A1B7B23B92046BDE8384097
:1094B00041F05EBAA368002BF7D01A689B8813832B
:1094C0002046BDE8384041F053BA00BF38B590F8A7
:1094D0002830012B044606D0407F08B9012038BD52
:1094E0000023637738BD406A03681A7B92B9637FB3
:1094F000002BF3D00A4D0B49022305F5827240F090
:109500004FFC95F80531D84303F0010300F001004A
:109510006377E7E71B6A002BE9D0002038BD00BF66
:10952000E8280020CC01002010B504462046FFF7B3
:10953000CDFF0028FAD0012010BD00BFF0B5224CAD
:10954000224A234B95B0054604F14000CDE90002C4
:10955000049304F144000023CDE90503CDE90E3363
:109560001C4A09920B9304F1380210931393119340
:109570006B6A2F7F0A921868012302228DF80C3043
:1095800007938DF820308DF834308DF848303B1D2E
:1095900002920E460C9347F041F897B1330E84F8CF
:1095A00039303A34320C330A22706370A670686A1C
:1095B000694640F0C5FB6B6A186847F02FF815B094
:1095C000F0BD3934EEE700BF98010020F0290020FB
:1095D0005D8C00083D8C000810B5044694B0502204
:1095E000064968464AF0EFFE606A694640F0A8FB0B
:1095F000636A186847F012F814B010BDA05105084E
:109600002DE9F0410446406A00681E460F46904628
:1096100047F004F8237FA069002B3ED0284D030EAD
:1096200085F84930052205F14A039870C5F8802075
:10963000020C000A58701A703B68C5F88C30002084
:10964000D8F80030C5F89430012E2363C5F8A40083
:1096500028D0022E1FD1D8F80420C5F89C007968C4
:1096600085F89800C5F8A01013441649C5F8A8203D
:109670000120236385F8AC00C5F8B010124B627F5F
:10968000606AA3F11401002A08BF194640F058FB94
:10969000E36A7BB1206BBDE8F0810C4B0422A3F19F
:1096A0004905C2E7074B85F89860C5E92730C5F83A
:1096B000A800E3E7636A186846F0B0FFEAE700BF76
:1096C00098010020458C0008FC010020E1010020E9
:1096D00000B583B081610192049A0093C2620123B4
:1096E0006A4601A9FFF78CFF03B05DF804FB00BFD9
:1096F0002DE9F843DDF820800F4615460021202291
:1097000004461E464AF0ECFDB8F1000F0CD0D8F824
:109710000030E3811B0C2382D8F80430B8F80A200B
:10972000E3821B0C62822383384648F0ADFBEB06D4
:1097300019D4431EB8B107EB000C01E0013B12D372
:109740001CF801EDBEF12E0FF8D1C01A421E032AFB
:10975000A8BF0322082B03F10109A8BF08239046E4
:10976000B9441A4606E008280246B946A8BF0822AE
:109770004FF000084FF020333946236063602046E5
:109780004AF021FE04F10800154B23814246494668
:1097900083704AF018FE611EE21D11F801CFACF192
:1097A0006103192B9CBFACF1200C81F800C09142E1
:1097B000F3D104F10A0011F8013FA3F16102192A63
:1097C0009CBF203B0B708142F5D118232373330CCF
:1097D000A382E572099B6683E361BDE8F88300BF5D
:1097E000202020002DE9F04FDFF84CB4DBF8800D8D
:1097F00085B0CBF8840D002B60D013440C4617467F
:1098000001F5FE7A99461FE0002F64D0DBF8B43DE5
:10981000BB4200F0C680DBF8B03DBB4200F0F880F0
:10982000DBF8B83DDBF8BC1DBB424BD8B94200F2B7
:109830007081791A204644F00FFB01374F4504F53B
:1098400000740AF5007A39D0DBF8C03DBB42DBD8A2
:10985000DBF8D05DFB1A296BDA0802328A4203F08A
:10986000070602D3AB6B9A420BD9294610460292E7
:1098700044F0C2FA029A0546002800F06A81CBF84B
:10988000D00D2B79002B40F01E81D5F82880B8F13F
:10989000000F00F057812B6BD21AEB6806EBC20267
:1098A00003EB422220462B464FF400710137C0479C
:1098B0004F4504F500740AF5007AC5D1002005B0C3
:1098C000BDE8F08FB942B4D94FF4007200212046B0
:1098D0004AF006FDB1E74FF40072394620464AF0DF
:1098E000FFFC802384F8BE310C2384F8C231DBF8FE
:1098F000B01DC54ADBF8A83DC4F8C6119142C4F8B2
:10990000CA3100F30B81C14AC14D82FB010285FBC4
:1099100001050A44C817C0EB6212C0EB2530BD4DEB
:1099200084F8C10185FB0265C2EB82168010891B99
:10993000013120F03F0015440843D117C1EBE51178
:109940000A4484F8BF21B04A84F8C001013B934225
:1099500000F3F080AD4AAE4882FB031280FB031097
:109960001A44D917C1EB6212C1EB2031A94884F81F
:10997000C51180FB0250C2EB821589105B1B0133BD
:1099800021F03F0110441943D317C3EBE0131A44ED
:1099900084F8C41184F8C3214AF65523A4F8FE3193
:1099A0004BE74FF0FF3384F8EC3184F8ED3184F865
:1099B000EE3184F8EF315223237063706123A3707A
:1099C00084F8E7314123E37084F8E63172230025FF
:1099D00084F8E43184F8E531DBF8C83DC4F8E831B7
:1099E0004FF4F0722946201D4AF07AFC552384F882
:1099F000FE316FF05503C4F8F051C4F8F451C4F8C7
:109A0000F85184F8FC5184F8FD5184F8FF3114E7D3
:109A10004FF40072002120464AF062FC7E4B03CBDB
:109A200045F6EB0323809023C4F80710A3700222AD
:109A30000821F823C4F80300617322746375DBF80E
:109A4000A83D2273A27384F82C20DBF8B02D9B1A5A
:109A50002362DBF8B82DDBF8BC3D9B1A6362002360
:109A6000E372E3736377A377E37784F82D3084F8A8
:109A70002E3084F82F3084F83130684BA361684B66
:109A8000C4F842303E232377012384F83030654AFE
:109A9000802384F8403084F846104AF65521A4F813
:109AA000FE1103CA604BC4F84700C4F84B1003CB47
:109AB0001388A4F84F309378C4F85200C4F85610B5
:109AC00084F85130B9E64FF40072002120464AF084
:109AD00007FC002E44D12B6C04F12008002B7BD016
:109AE0002B6B52491122CDE900662046FFF700FE9C
:109AF0002B6C1A6C002A7ED01B6B4D49CDE9006699
:109B000040461122FFF7F4FD04F140084FF4E073E2
:109B10006DE0F91A204644F09FF98EE6FF2284F8A2
:109B2000C1214FF6FF72A4F8BF21374A013B93428F
:109B30007FF710AFFF2384F8C5314FF6FF73A4F809
:109B4000C33129E741464FF4007220464AF0C8FB72
:109B500073E6384A231F43F8042F9A45FBD16CE67D
:109B6000D5E910253301002A43D0023B002D3FF4F4
:109B700064AE013BAD6CF9D1A0464FF40073002DEB
:109B80003FF45BAECDE9027A08EB0306A24608E09B
:109B90000024CDE900C4FFF7ABFDAD6CBDB1B0450D
:109BA00015D02C7929682B6B404605F11C0C11222D
:109BB00008F12008002CEBD16A792C6942F02102CF
:109BC000CDE900C4FFF794FDAD6C002DE7D15446FC
:109BD000029FDDF80CA030E6CDE900663346DBF8E5
:109BE000AC1D08222046FFF783FD4FF4F0736D6C27
:109BF000C5E7013BBAE7CDE900660D49334640466B
:109C00001122FFF775FD7FE7FF03FB008320088229
:109C1000975545418180808068B805083F00FF0066
:109C200029940E0D74B8050880B8050860B80508B9
:109C300064B80508DEADBEEFF017002010B4EFF3F6
:109C40001183102282F312880A4C0B48D4F8802D1D
:109C50004FF0E0210132C4F8802D8A69C0F80C2150
:109C60000022C0F810210A69DBB283F311885DF885
:109C7000044B7047F0170020E828002030B4EFF3C1
:109C80001183102282F312884FF0E0220F4894696A
:109C90001169C90344BF0121C0F810110C4948BF24
:109CA0009469D1F8805DD0F81021DBB283F311887C
:109CB000D1F8D81D4FF47A702A4400FB01F31B1B26
:109CC00030BCB3FBF1F300FB02307047E828002002
:109CD000F017002030B50C4683B00546D8B10368B4
:109CE00003F13F4303F57E039B0A0C4A134493F8A8
:109CF000000444F0AFFEC4F34112C4F30013CDE9F5
:109D00000032C4F38103A988286804F0030246F0F6
:109D100025FA03B030BD4FF0FF33E6E7C84605082B
:109D200000B1D7E7704700BF70B50E4C94F8CC680F
:109D3000B6B104F59164002504E00135B54204F1A3
:109D400020040DD0237F002BF7D0E0680028F4D04A
:109D5000217D0135FFF7BEFFB54204F12004F1D1AA
:109D6000012070BDF017002010B40F4B0F4C4FF0C6
:109D7000E02CD3F8802DDCF81800D3F8801D8A423F
:109D8000F7D1D4F80C118842F3D8D3F8D84D4FF45A
:109D90007A7101FB04F31B1AB3FBF4F35DF8044B77
:109DA00001FB0230704700BFF0170020E8280020B8
:109DB000184B5B68C3F308031BB9EFF3118303B9B6
:109DC000D2E730B4EFF31182102383F312884FF0FF
:109DD000E02311489C691969C90344BF0121C0F8F7
:109DE00010110E4948BF9C69D1F8805DD0F8103140
:109DF000D2B282F31188D1F8D81D4FF47A722B4475
:109E000002FB01F0001B30BCB0FBF1F002FB0300D1
:109E1000704700BF00ED00E0E8280020F0170020A8
:109E20002DE9F04F037D02681F2B83B0044609D94A
:109E30005068A3F120052021A940014207D103B0B9
:109E4000BDE8F08F1068202199400142F7D04A49BF
:109E50004A4DD4F818804868494F95F89FCEC7F806
:109E600014018C2101FB0851D1F8D8080668BCF117
:109E7000000F19D1D1F85009B1F8DCC8016821F000
:109E800001010160B18989B221EA0C01B18195F823
:109E90008110C1B91F2B62D9A3F1200120238B406F
:109EA000D36003B0BDE8F08F0069016821F00101C3
:109EB0000160B18921F480710904090CB18195F820
:109EC00081100029E6D04FF08C0909FB08F905EB59
:109ED0000903DFF8B0B0D3F850291046CDE90023CC
:109EE00041F064F9019B012283F82429D7F81C3141
:109EF00009F1180ADA44002B38D033889BB243F0BA
:109F00008003338009F174094FF0FF330BEB090133
:109F1000F362304641F0D2FC8C2303FB08555146D6
:109F200000230098C5F8F43841F0D6F9D5F8503937
:109F300016225A601A6842F001021A60D5F8D82831
:109F4000B5F8DC38126891890B439BB293810A49BA
:109F5000237D49682268C7F818111F2B9CD820213F
:109F600001FA03F3936003B0BDE8F08FFFF720FF21
:109F7000C7F81C01C1E700BF001000E0F017002087
:109F8000E8280020C02000202DE9F04FC74B85B005
:109F900093F8813003931BB9012005B0BDE8F08F21
:109FA000C24BDFF818B3D3F8802D02920BF5387549
:109FB00093F8CC28019203F591674FF0000AABF5B6
:109FC0009074A846019B9A4500F0E080BB69D7F8E1
:109FD0000490D3E93A65FFF7EBFE00904FEA890061
:109FE00000F1085094F8099500EB461005F18061E6
:109FF00094F808653939B9F1540F00EB811100EB81
:10A00000861301D1A4F81265994240F23E811A6884
:10A01000002A00F033811A6C002A00F04481D3F842
:10A020008020002A00F04C81D3F8C02003F5807313
:10A03000002AE9D1181A99424FEAA01040F225816E
:10A04000291A45294FF0000628BF452103EB81114D
:10A050009E463546B4460DE01A6C002A40F0B780A3
:10A06000D3F88020002A40F0DD80D3F8C02003F52B
:10A0700080732AB9994206D91A68002AECD0403375
:10A08000994200F2A8806646112E40F20281DCF16E
:10A09000150200F1FE808649D1F8C830984238BFD9
:10A0A000C1F8C800D4F81C350098C11A002918DB83
:10A0B00003F5F42303F59073984284BF03460533F8
:10A0C000C4F81C357A4B7A49D3F8C830052B86BFC3
:10A0D000053BDBB2002384F808354FF0FF33C1F8AD
:10A0E000C83032B105FA02F2C6F114060125B540B6
:10A0F00015437048C5F3C43300EB8303D3F8281B22
:10A1000005F01F0300EB8303D3F8282B42EA01324A
:10A11000C5F3441100EB8101C5F3842300EB8303F5
:10A12000D1F8281BD3F8283B42EA011242EA032364
:10A1300083EA132282EA121202F00F01D4F80824F3
:10A140000F2902F1010240F08880B3F5803F80F0D2
:10A150008480B9F1540F4FEA13131ED0B3F5606F2A
:10A16000C4F8082423D0A8F80C300399029A584662
:10A170000EF074FD0AF1010ABAF1080F0BF15C0B45
:10A1800007F1200708F114087FF41CAF0123012018
:10A1900084F8043505B0BDE8F08FB4F80C15C4F8A8
:10A1A00008240131B3F5606FA4F80C15DBD13F4AE8
:10A1B00092F89D2E02EB420204EBC202524412F8C6
:10A1C000932C0D2ACFD1802388F81E30CDE7803321
:10A1D00099427FF658AFA3EB0E06374AB611013607
:10A1E00082FB06E2A2EBE672012AB8BF012295408B
:10A1F00001269444013A06FA02F215431E463268DB
:10A2000092B1326C002A5DD0D6F88020002A5BD053
:10A21000D6F8C02006F580763AB1B142EFD89E4616
:10A22000334627E7C0332BE74036B142F7D9F21A5D
:10A230009211214B013283FB02E3A3EBE273012B6A
:10A24000B8BF01239D409C440122013B02FA03F365
:10A250001D4333469E4633460CE7B9F1540F04D1F3
:10A26000B4F80C350133A4F80C35D4F80434C4F830
:10A2700008240133C4F80434002177E74033181A66
:10A2800099424FEAA0103FF6DBAE16B1013E84F8CA
:10A290000865B9F1540F7FF46DAFB4F80E35013392
:10A2A000A4F80E3566E78033C4E600BFF01700203F
:10A2B00098010020C846050856555555082A002023
:10A2C000C033B7E68036B0E7C036AEE7274B5B68F1
:10A2D000C3F308032DE9F0410446002B42D1EFF30C
:10A2E0001183002B3ED1FFF73FFD06461F4FDFF8DD
:10A2F00084801F4D04E0FFF737FD831BA3422FD25C
:10A300007B68C3F308031BB9EFF31183002BF2D072
:10A31000EFF31183102282F312884FF0E022012024
:10A32000D2F818C01169C90344BFC5F81001D2F8AA
:10A3300018C0D8F880EDD5F81021DBB283F311886E
:10A34000D8F8D80D4FF47A7101FB00F37244A3EBF7
:10A350000C03B3FBF0F301FB0230831BA342CFD30A
:10A36000BDE8F081FFF78AFC0646BFE700ED00E09C
:10A37000E8280020F01700202DE9F843294CDFF8E9
:10A38000AC90294D471E10266368C3F30803002BC9
:10A3900043D1EFF31183002B3FD1FFF7E5FC80465B
:10A3A00006E0FFF7E1FCA0EB0800B0F57A7F30D2C1
:10A3B0006368C3F308031BB9EFF31183002BF0D0DC
:10A3C000EFF3118286F312884FF0E0230120D3F8D7
:10A3D00018C01969C90344BFC5F81001D3F818C0E3
:10A3E000D9F880EDD5F81031D2B282F31188D9F8BE
:10A3F000D81D4FF47A7202FB01F07344A0EB0C00FD
:10A40000B0FBF1F002FB0300A0EB0800B0F57A7F8F
:10A41000CED3013FB8D2BDE8F883FFF72FFC8046CA
:10A42000C6E700BF00ED00E0E8280020F01700209C
:10A430002DE9F04F874B884C93F8882DD3F8908DF9
:10A44000D3F88C7D83B002F00203009302F0010385
:10A45000824601F1FF39019344F08EFD4FF4FA7604
:10A460006368C3F30803002B40F0EB80EFF3118324
:10A47000002B40F0E680FFF777FC054605E0FFF78C
:10A4800073FC401BB0F57A7F0DD26368C3F30803F9
:10A490001BB9EFF31183002BF1D0FFF7EFFB401B4B
:10A4A000B0F57A7FF1D3013EDAD1B8F1000F08D0D0
:10A4B0000099B8F80420D8F80030002900F0C880CE
:10A4C0001A8337B10199BA883B68002940F0BD80F2
:10A4D0001A835646B8F1000F08D0D8F80030B8F803
:10A4E000042059690A4214BF5A831A8337B13B6862
:10A4F000BA8859690A4214BF5A831A8301200EF0A0
:10A50000E3FF4FF0FA0B6368C3F30803002B40F03E
:10A510009080EFF31183002B40F08B80FFF724FC39
:10A52000054605E0FFF720FC401BB0F57A7F0DD211
:10A530006368C3F308031BB9EFF31183002BF1D059
:10A54000FFF79CFB401BB0F57A7FF1D3BBF1010B09
:10A55000D9D1B8F1000F08D0D8F80030B8F80420ED
:10A5600059690A4214BF5A831A8337B13B68BA88C3
:10A5700059690A4214BF5A831A8300200EF0A4FFBF
:10A580004FF0FA0B6368C3F30803002B4DD1EFF3D0
:10A590001183002B49D1FFF7E7FB054605E0FFF7E4
:10A5A000E3FB401BB0F57A7F0DD26368C3F3080369
:10A5B0001BB9EFF31183002BF1D0FFF75FFB401BBA
:10A5C000B0F57A7FF1D3BBF1010BDBD1013EF6B2DE
:10A5D000FF2E7FF47FAF4FF47A766368C3F30803EE
:10A5E0005BBBEFF3118343BBFFF7BEFB054605E002
:10A5F000FFF7BAFB401BB0F57A7F0DD26368C3F357
:10A6000008031BB9EFF31183002BF1D0FFF736FBE2
:10A61000401BB0F57A7FF1D3013EDED1B9F10109DB
:10A62000BFF41AAF03B0BDE8F08FFFF727FB054674
:10A63000BBE7FFF723FB05467AE7FFF71FFB05465D
:10A64000DCE7FFF71BFB05461FE75A83564641E749
:10A650005A8336E7F017002000ED00E02DE9F843BB
:10A66000294B5B68C3F30803002B40D1EFF3118340
:10A67000002B3CD1FFF778FB0546244F224ED7F83C
:10A6800084404FF00008002C2DDD00231A4607EB14
:10A690000321013391F879119C4242EA0102F6D17B
:10A6A00042EA08095FFA89F990467368C3F3080320
:10A6B000B3B9EFF311839BB9FFF756FB401BB0F51D
:10A6C000FA6F02DCB8F1000FDDD1B9F1000F04D050
:10A6D0000F4B93F80925542A0DD04846BDE8F8835E
:10A6E000FFF7CCFAEAE7C1464FF00008DDE7FFF7D5
:10A6F000C5FA0546C1E7B3F810250132A3F81025C5
:10A700004846BDE8F88300BF00ED00E0F0170020E8
:10A71000E828002070B5244C94F89C2E94F89D3EB7
:10A720009A423BD1D4F88450002D11DD1F4894F893
:10A730008160002416B1037E012B29D002691368C1
:10A74000013443F00103AC4200F580701360F1D195
:10A75000174B5B68C3F30803BBB9EFF31183A3B9CD
:10A76000FFF702FB134BD3F82045002C0CDD03F25E
:10A77000245303EBC40419689A8888890833024378
:10A7800092B29C428A81F6D170BDFFF777FAE9E771
:10A79000002380F8F030FDF749FFCFE746F02AFDAF
:10A7A0000028BFD170BD00BFF0170020781800202E
:10A7B00000ED00E0E8280020F8B5C0F30D040646DF
:10A7C0000F46ECB13D6840F0B5FD092815D1434C6A
:10A7D000236923F440732361236943F400732361E5
:10A7E000236943F001032361356040F0A3FD236931
:10A7F000092823F0010323616ED06FF0020034E0DA
:10A80000374B384A93422AD302F58042934225D3EC
:10A8100002F58042934229D3334A934228D902F564
:10A820008032934226D902F50032934224D902F5B0
:10A830000032934222D902F50032934220D902F528
:10A84000003293421ED902F5802293421CD9B3F103
:10A85000016F1BD344F032FC44F086FB082440F027
:10A8600069FD092814D04FF0FF30F8BD1024F6E739
:10A870001824F4E72024F2E72824F0E73024EEE758
:10A880003824ECE74024EAE74824E8E75824E6E7E0
:10A89000124D2B6923F440732B612B6943F4007331
:10A8A0002B612B6923F0F8032B612B691C4344F0C7
:10A8B00002042C612B6943F480332B6140F03AFD94
:10A8C0002B6923F002032B612B69092823F0F8037D
:10A8D0002B613FF477AFC6E70020C6E7003C02409B
:10A8E0000040000800400008FFFF000843680B4AD2
:10A8F00023F0407323F4807343F4807343608368D0
:10A900001A4042F002028260C36A0139C9B223F4DC
:10A91000700343EA0153C362704700BFFDF7FFC0F5
:10A92000704700BF0020FDF76BBB00BF0120FDF7A3
:10A9300067BB00BF0220FDF763BB00BF10B1036817
:10A9400082881A83704700BF10B1036882885A83D7
:10A95000704700BFF8B50468D4E904235568117D39
:10A960001768002B40D01F295E6898612CD82022E0
:10A970008A4042F01802BA601A7D19681F2A2DD940
:10A98000203A2023934043F01803CB6000232B6030
:10A9900033603368A16943F010033360284640F008
:10A9A0009BFCE169304640F097FC2B68626843F0FD
:10A9B00001032B60336843F00103336093889BB23B
:10A9C00043F003039380F8BD203920228A4042F0EF
:10A9D0001802FA601A7D19681F2AD1D820239340E3
:10A9E00043F018038B60D1E71F29906119D8202309
:10A9F0008B4043F01803BB6000232B602B68A169D8
:10AA000043F010032B60284640F066FC2B68626818
:10AA100043F001032B6093889BB243F002039380C1
:10AA2000F8BD203920238B4043F01803FB60E3E797
:10AA3000F0B5056890F888606B688488012285F815
:10AA400024201A8822F040021204120C1A802A894B
:10AA5000A24216D0B4F5807F2146A8BF4FF4807182
:10AA600002291A88B8BF022191FAA1F192B2B1FA73
:10AA700081F122F03802013942EAC10292B21A8011
:10AA80002C81017BAA7A8A420BD01A8822F0030219
:10AA90001204120C1A801A8892B2002944D01A802B
:10AAA000A9721A882F7B92B242F040021A802B6A58
:10AAB0009A6892B34FF0000C1D4C1433E64653F8DD
:10AAC000101C964401EA040221B1B2F1805F27D044
:10AAD0006A692AB353F8142C143302EA040112B140
:10AAE000B1F1805F1CD053F80C2C0CF1010C002A42
:10AAF000E5D1AFB1A6B1BCF1010F0AD8BEF1070F85
:10AB000007D80CEB8C0C4FEA8C022B6A13441B7B8E
:10AB100033B9BDE8F0403FF0F3BE0FB1002EF4D1E1
:10AB2000BDE8F0403FF074BF42F00302B7E700BF5A
:10AB30000000FFFFD3B2012B1DD8104B02EB4202E5
:10AB400010B54FEA820E0EF1080403F5EE7C02E028
:10AB50001C3363450DD01A788242F9D15A788A4263
:10AB6000F6D11A59002AF3D00EF1040E03EB0E00B1
:10AB700010BD002010BD0020704700BF70520508B6
:10AB800010B40C4C002304F2445C01E0152B0CD0F3
:10AB900003EB430201331CF802108142F6D1144446
:10ABA00094F946055DF8044B70474FF0FF305DF8AF
:10ABB000044B7047E828002070B502EB4202104CAD
:10ABC0004FEA820E23460EF10C05002204E001320A
:10ABD000172A03F12C0310D01E688642F7D193F890
:10ABE00004C08C45F3D15E59002EF0D02C210EF11B
:10ABF000080301FB0233E01870BD002070BD00BFE8
:10AC0000C84605080348D0F8DC300BB1CC301847F3
:10AC1000704700BF980100200348D0F800310BB105
:10AC2000F0301847704700BF980100200348D0F863
:10AC3000243113B100F58A7018477047980100203D
:10AC40000348D0F8483113B100F59C70184770479D
:10AC5000980100200348D0F86C3113B100F5AE70B4
:10AC600018477047980100200348D0F8903113B17D
:10AC700000F5C07018477047980100200348D0F8CD
:10AC8000B43113B100F5D270184770479801002015
:10AC90000348D0F8D83113B100F5E4701847704775
:10ACA000980100200348D0F8FC3113B100F5F6708C
:10ACB00018477047980100200348D0F8203213B19C
:10ACC00000F5047018477047980100200348D0F839
:10ACD000443213B100F50D701847704798010020F9
:10ACE0000348D0F8683213B100F516701847704762
:10ACF000980100200348D0F88C3213B100F51F7082
:10AD000018477047980100200348D0F8B03213B1BB
:10AD100000F5287018477047980100200348D0F8C4
:10AD2000D43213B100F531701847704798010020F4
:10AD30000348D0F8F83213B100F53A70184770475D
:10AD400098010020094B0A4A013800EBC00003EBD0
:10AD500080030848D3F8CC30116B834214BF4FF402
:10AD600080034FF400130B431363704798010020D6
:10AD70000038024000600240F0B401383B4C3C4EC9
:10AD80003C4D00EBC00C04EB8C0CDCF8CC70AF42FB
:10AD900014BF4FF480054FF40015376B3D43356306
:10ADA000354DCCF8E430DCF8D030CCF8DC10AB42D8
:10ADB0004FEAC0013FD005F58065AB423BD0A5F519
:10ADC0007A75AB4246D005F58065AB4242D0A5F519
:10ADD0007A75AB4240D005F58065AB423CD0A5F515
:10ADE0007A75AB4234D005F58065AB4230D0A5F51D
:10ADF0007A75AB4232D005F58065AB422ED0A5F511
:10AE00007A75AB422CD005F58065AB4228D0A5F50C
:10AE10007A75AB4226D005F58065AB4222D0A5F508
:10AE20007A75AB4220D0154D06F532563836B3420E
:10AE300018BF002500E0124D0B1804EB8304C2F389
:10AE4000871194F8E100C4F8EC50F0BC43F052B81C
:10AE50000C4DF1E70C4DEFE70C4DEDE70C4DEBE73A
:10AE60000C4DE9E70C4DE7E7044DE5E798010020BC
:10AE7000003802400060024010600240008000285C
:10AE80002080001000800018008800100080201032
:10AE90002080002000880020008020202DE9F04F35
:10AEA000774A92F89535012B85B01ED0022B12D02F
:10AEB00000230193734C012604F178082378022BB8
:10AEC00015D00136042E04F1280408F10508F5D147
:10AED00005B0BDE8F08F92F88A3533B192F8863527
:10AEE000083B18BF01230193E4E70193E2E798F9D7
:10AEF0000350F3B26A1C18BFEDB203F1FF3912BF61
:10AF0000AA464FF0010A002502935FFA89F96AB256
:10AF100049460020FFF70EFE8346002800F09F8080
:10AF200040680EF0AFF90746A0F109030198029AB4
:10AF3000142110B1072B40F2978038460EF08AF9A1
:10AF4000002800F08C805048DBF808107B1E5A4225
:10AF500003EBC30502F0070200F1CC0B03F007037B
:10AF600058BF534200EB85020BEB8505256138463F
:10AF700082F8D430C2F8D810FFF7E4FE98F9042024
:10AF8000531C78D05FFA82FBCDF80CB04FFA8BF2ED
:10AF900049460120FFF7CEFD0546002840D0406815
:10AFA0000EF070F9019B029A8246132109380BB109
:10AFB00007283CD950460EF04DF988B33248AB68AB
:10AFC0000AF1FF32514202EBC20501F0070100F124
:10AFD000CC0B02F0070258BF4A4200EB85010BEB95
:10AFE00085056561504681F8D420C1F8D830FFF757
:10AFF000A9FE002F3AD0BAF1000F1BD02846FDF76A
:10B0000003FA2069FDF700FA2046FDF7CFF9002387
:10B010001A461E495046FFF7AFFE0123237350E73F
:10B02000039B0BF1010B5FFA8BFB9B45AED9EFB194
:10B03000DFF860B07B1E242202FB03B000252061F4
:10B040006561FDF7E1F92046FDF7B0F92B4610499F
:10B050002A463846FFF790FE0123237331E7013576
:10B06000EDB2AA45BFF453AF002787E700220023C3
:10B07000C4E9042325E7012303934FF0000B85E780
:10B08000E8280020982E0020980100205D940008F8
:10B09000959400086402002048B182880449B2FAFD
:10B0A00082F208684FF00043D34003430B607047BF
:10B0B000003C01400120FEF7CFB800BF0220FEF7A0
:10B0C000CBB800BF0420FEF7C7B800BF0820FEF7CA
:10B0D000C3B800BF1020FEF7BFB800BF4FF47870B0
:10B0E000FEF7BAB84FF47C40FEF7B6B8F0B50546A7
:10B0F00083B0A0B307681D4B144607F13F4202F529
:10B100007E0203EB92230E4693F8000443F0A2FC68
:10B11000A988B1FA81F3C3F11F03C3F3CC0207EB93
:10B12000820203F00703156A4FF00F0C9B009C404E
:10B130000CFA03F325EA03031362136A1C43146237
:10B14000C6F30013C6F34112CDE900323846C6F308
:10B15000810306F0030245F001F803B0F0BD034B94
:10B1600093F8FF0343F076FC2B68FFDEC846050822
:10B1700000B1BBE7704700BF431C00F03C812DE9E4
:10B18000F04F00EB8003B24F87B057F83390820046
:10B190000192054607EBC302B9F1000F03D0946892
:10B1A00024B1A37913B107B0BDE8F08FAB002B44F5
:10B1B00007EBC303D3F80CA0BAF1000F03D09AF841
:10B1C0000630002BEFD1AB002B44DB001833F8180E
:10B1D0000022691CD9F80480FA50C9B2C0E90122E2
:10B1E000C260002C00F095811523E171A37199F8DC
:10B1F0001800BAF1000F00F07A8116238AF80710C0
:10B200008AF8063043F026FCB8F804302268A0889B
:10B2100023F440731B041B0CA8F80430DAF8003048
:10B220001083BAF804201A8311212046FEF752FD3C
:10B2300011215046FEF74EFD09264FF0330B2CB975
:10B24000D3E0BBF1010B06D044F03AF82268A188A4
:10B2500010690142F5D0518344F086F82368A28832
:10B260001A8344F081F8013EE7D1002C00F0EE8013
:10B27000332603E0013E06D044F022F82268A1887C
:10B2800013691942F6D0518344F06EF8BAF1000FF9
:10B2900000F01281DAF80030BAF804205A8344F042
:10B2A00063F82368A2881A8344F05EF8DAF8003065
:10B2B000BAF804201A8344F057F82368A2881B695F
:10B2C0001A4240F09980019B2B4407EBC303997C01
:10B2D0001A7C002940F09C8020461221FFF706FFCF
:10B2E0001221019B2B4407EBC3035A7C5046FFF706
:10B2F000FDFE584B984500F02681574B984500F0CD
:10B300002D81564B984500F03481019B2B4407EB6F
:10B31000C3034FF47A729C8AB8F8043023F4407364
:10B320001B041B0CA8F80430B8F800309BB243F0A3
:10B330000103A8F80030B8F8045002A802FB04F496
:10B3400025F03F053FF0E6FE0499454B2D04A3FB95
:10B3500001232D0C45EA9345A8F80450B8F80020C5
:10B3600022F001021204120CA8F800203D4A980CA9
:10B370009442034652DC6200B1FBF2F292B2013316
:10B38000042A38BF0422A8F82030A8F81C20B8F8F6
:10B3900000309BB243F00103A8F80030B8F8003049
:10B3A00023F4816323F002031B041B0C4FF480423F
:10B3B00043F48063A8F80030A8F80820B8F80030FB
:10B3C00023F080031B041B0CA8F8003099F81A0026
:10B3D000002142F08FFD99F81900002107B0BDE867
:10B3E000F04F42F087BD43F06BFFBBF1010BFAD188
:10B3F00043F0BAFF35E77047019BDAF800202B4491
:10B4000007EBC30312699A7C002A00F0BD801A7C06
:10B4100032212046FFF76AFE322162E704EB440442
:10B42000B1FBF4F18AB2C1F30B0109B942F0010298
:10B430000D494FF4967300FB03F3A1FB03139B0923
:10B44000013342F40042A8F820309EE733240FE095
:10B45000F01700200054004000580040005C0040FD
:10B4600083DE1B43A0860100D34D621043F028FF0A
:10B47000013CFBD143F078FFBAF1000F00F08A8065
:10B48000DAF80030BAF804205A8343F06DFF43F035
:10B490006BFFDAF80030BAF804201A8343F064FF37
:10B4A000019B2B4407EBC3039A7C002A18BF32216F
:10B4B0005A7C08BF122119E743F056FF2368A2887F
:10B4C0001A8343F051FF43F04FFF2368A2881B69A2
:10B4D0001A4266D1019B2B4407EBC303997C1A7C6B
:10B4E00000296DD020463221FFF700FE01E743F02E
:10B4F000B1FAB8F80430A28823F440731B041B0C83
:10B50000A8F80430236811211A832046FEF7E2FBD5
:10B5100092E699F81800BAF1000F56D016238AF86F
:10B5200006308AF8071043F095FAB8F80430BAF8F4
:10B53000042023F440731B041B0CA8F80430DAF831
:10B5400000301A8374E603F5F2331A6A42F40012EB
:10B550001A621A6A22F400121A62D6E603F5F03370
:10B560001A6A42F480021A621A6A22F480021A628B
:10B57000CBE603F5EE331A6A42F400021A621A6A45
:10B5800022F400021A62C0E61A7C20461221FFF75C
:10B59000ADFDA5E643F0E8FE43F0E6FE43F0E4FE31
:10B5A000A7E6019B2B4407EBC30320469A7C002AA5
:10B5B00018BF32211A7C08BF1221FFF797FD98E6C9
:10B5C00020461221FFF792FD93E643F043FAB8F8C4
:10B5D000043023F440731B041B0CA8F804302BE642
:10B5E0002DE9F8430746FEF749FBDFF8508007EBEB
:10B5F0008709044608EBC90542F20F7604E0FEF71E
:10B600003DFB001BB0420ADC6B7E002BF7D108EB40
:10B61000C90898F8180080F00100BDE8F883064AD0
:10B62000B2F83836013338469BB2A2F83836FFF705
:10B63000A3FD0020BDE8F883E8280020F0170020D3
:10B64000B0F1FF3F68D02DE9F04F022883B00446E7
:10B6500014DCDFF8CCB01E4600EB80030BEBC30517
:10B66000DB00D5F804A00093BAF1000F06D088469D
:10B67000697E914601F0FF02019219B1002003B0EA
:10B68000BDE8F08FFEF7FAFA009B019A20334FEAEB
:10B690004801C9B207460BEB0300A9764FF0010C35
:10B6A0000C9985F81B906A7785F81EC04BF803103B
:10B6B00041602E7785F819C02A76BAF804309905CA
:10B6C0001DD4BAF80030DA0512D442F20F7504E046
:10B6D000FEF7D4FAC31BAB4213DCBAF800309B056B
:10B6E000F6D4BAF800309BB243F48073AAF8003065
:10B6F000BAF804309BB243F44073AAF80430012036
:10B70000BDE7064AB2F8383601339BB22046A2F8AC
:10B710003836FFF731FDB1E700207047E8280020F8
:10B72000F0170020E0B500EB8003274E06EBC302C4
:10B7300056F833305D68AB8A84B09BB20393039BA9
:10B7400013F4706F1CBF01231376039B13F4E06F97
:10B750004FEA80070CD1AB8A074423F4706306EBF1
:10B76000C7061B041B0C0022AB82727604B0E0BD3E
:10B770002B8BAB8823F480631B041B0CAB80039BD7
:10B780009A05E8D42B889B05E5D42B88D9050FD5DD
:10B790002B88DA05FCD42B889BB243F400732B80F2
:10B7A0002B889B05FCD40190FFF7E6FC0198D2E7BB
:10B7B0002B889BB243F400732B80AB8823F4407337
:10B7C0001B041B0CAB80C6E7F01700200020A9E784
:10B7D0000120A7E70220A5E770B590F871301C0999
:10B7E000013C042C0FD81A4E06EB44020546B2F871
:10B7F000F40303F00F0340FA03F2D20703D595F8E0
:10B800007C20012A01D0012070BD9A40013A1040ED
:10B81000264448F0E7FD96F8843D0E4A034402EBC7
:10B82000C30452F83320A38810691840ECD0EB6EA3
:10B83000002285F87C2093F8212002212046FFF782
:10B8400055FC2A6E93899BB243F008039381DAE793
:10B85000C84605087C1D002010B41D4B1D48196CFE
:10B860001D4A41F08051012485B0196404625321BE
:10B87000FF24CA205462506251625B6FDB0017D410
:10B8800016480423002102910290029A1A4402925F
:10B89000029A04331C2B1160F5D103910390039B92
:10B8A0000393039B0E4A1A6005B05DF8044B704782
:10B8B0000A4B002201920193019B0193019A084BCC
:10B8C00012689A42DCD105B05DF8044B704700BFA6
:10B8D0000038024000000E4200280040502800407E
:10B8E0003166654238B50409013C042C1AD80F4D65
:10B8F00005EB440200F00F03B2F8F40340FA03F240
:10B9000012F0010210D0012202FA03F3013B1840A9
:10B91000254448F067FD95F8843D054A034402EB51
:10B92000C30038BD002038BD104638BDC8460508E4
:10B930007C1D002008B50EF0C1FE052807D8054B78
:10B94000D3F83C360344187BBDE80840CAE7002022
:10B9500008BD00BFE82800202DE9F041046ED0F8B2
:10B960000880A38923F400531B0407461B0C90B0E6
:10B97000A38143793D79C3F38000190305F00106E3
:10B980001B0215F002054FEA00304FEA860203F46D
:10B99000806318BF42F0080203431A43238A9BB214
:10B9A00001F4005123F440530B432382A38923F471
:10B9B000B05323F00C031B041B0C1A43A281A38A6F
:10B9C00023F440731B041B0CA38201A83FF0A2FBCD
:10B9D0006B4B9C4205D003F580639C4201D0039BD6
:10B9E00000E0049BA2896749A089120403EB83034A
:10B9F0004CBF4FEA48084FEA880803EB8303B3FBC8
:10BA0000F8F3A1FB03C252094FF0640C00040CFBD5
:10BA100012334FEA021200F19A801B013233A1FB6C
:10BA20000313C3F3431313439BB2238197F93800E5
:10BA300097F80580FFF77EFF30B10368828818F021
:10BA4000010F14BF1A835A8318F0080FA38A78D005
:10BA50009BB243F00803A382A3899BB243F4005333
:10BA6000A381002E2FD0FE6B002E7DD00023CDE9C8
:10BA70000833CDE90C33CDE90E33049306937B6C88
:10BA80000193FB6D0293FB6805937B6903934FF46D
